{
  "_format": "hh-sol-artifact-1",
  "contractName": "SportsMarketplace",
  "sourceName": "contracts/Marketplace.sol",
  "abi": [
    {
      "inputs": [],
      "stateMutability": "nonpayable",
      "type": "constructor"
    },
    {
      "anonymous": false,
      "inputs": [
        {
          "indexed": true,
          "internalType": "uint256",
          "name": "itemId",
          "type": "uint256"
        },
        {
          "indexed": false,
          "internalType": "string",
          "name": "name",
          "type": "string"
        },
        {
          "indexed": false,
          "internalType": "string",
          "name": "description",
          "type": "string"
        },
        {
          "indexed": false,
          "internalType": "string",
          "name": "image",
          "type": "string"
        },
        {
          "indexed": false,
          "internalType": "uint256",
          "name": "price",
          "type": "uint256"
        },
        {
          "indexed": false,
          "internalType": "string",
          "name": "category",
          "type": "string"
        },
        {
          "indexed": false,
          "internalType": "address",
          "name": "seller",
          "type": "address"
        }
      ],
      "name": "MarketItemCreated",
      "type": "event"
    },
    {
      "anonymous": false,
      "inputs": [
        {
          "indexed": true,
          "internalType": "uint256",
          "name": "itemId",
          "type": "uint256"
        },
        {
          "indexed": false,
          "internalType": "address",
          "name": "buyer",
          "type": "address"
        }
      ],
      "name": "MarketItemSold",
      "type": "event"
    },
    {
      "inputs": [
        {
          "internalType": "string",
          "name": "name",
          "type": "string"
        },
        {
          "internalType": "string",
          "name": "description",
          "type": "string"
        },
        {
          "internalType": "string",
          "name": "image",
          "type": "string"
        },
        {
          "internalType": "uint256",
          "name": "price",
          "type": "uint256"
        },
        {
          "internalType": "string",
          "name": "category",
          "type": "string"
        }
      ],
      "name": "createMarketItem",
      "outputs": [],
      "stateMutability": "nonpayable",
      "type": "function"
    },
    {
      "inputs": [
        {
          "internalType": "string",
          "name": "category",
          "type": "string"
        }
      ],
      "name": "fetchItemsByCategory",
      "outputs": [
        {
          "components": [
            {
              "internalType": "uint256",
              "name": "itemId",
              "type": "uint256"
            },
            {
              "internalType": "string",
              "name": "name",
              "type": "string"
            },
            {
              "internalType": "string",
              "name": "description",
              "type": "string"
            },
            {
              "internalType": "string",
              "name": "image",
              "type": "string"
            },
            {
              "internalType": "uint256",
              "name": "price",
              "type": "uint256"
            },
            {
              "internalType": "string",
              "name": "category",
              "type": "string"
            },
            {
              "internalType": "address payable",
              "name": "seller",
              "type": "address"
            },
            {
              "internalType": "bool",
              "name": "sold",
              "type": "bool"
            }
          ],
          "internalType": "struct SportsMarketplace.MarketItem[]",
          "name": "",
          "type": "tuple[]"
        }
      ],
      "stateMutability": "view",
      "type": "function"
    },
    {
      "inputs": [],
      "name": "fetchMarketItems",
      "outputs": [
        {
          "components": [
            {
              "internalType": "uint256",
              "name": "itemId",
              "type": "uint256"
            },
            {
              "internalType": "string",
              "name": "name",
              "type": "string"
            },
            {
              "internalType": "string",
              "name": "description",
              "type": "string"
            },
            {
              "internalType": "string",
              "name": "image",
              "type": "string"
            },
            {
              "internalType": "uint256",
              "name": "price",
              "type": "uint256"
            },
            {
              "internalType": "string",
              "name": "category",
              "type": "string"
            },
            {
              "internalType": "address payable",
              "name": "seller",
              "type": "address"
            },
            {
              "internalType": "bool",
              "name": "sold",
              "type": "bool"
            }
          ],
          "internalType": "struct SportsMarketplace.MarketItem[]",
          "name": "",
          "type": "tuple[]"
        }
      ],
      "stateMutability": "view",
      "type": "function"
    },
    {
      "inputs": [],
      "name": "fetchMyItems",
      "outputs": [
        {
          "components": [
            {
              "internalType": "uint256",
              "name": "itemId",
              "type": "uint256"
            },
            {
              "internalType": "string",
              "name": "name",
              "type": "string"
            },
            {
              "internalType": "string",
              "name": "description",
              "type": "string"
            },
            {
              "internalType": "string",
              "name": "image",
              "type": "string"
            },
            {
              "internalType": "uint256",
              "name": "price",
              "type": "uint256"
            },
            {
              "internalType": "string",
              "name": "category",
              "type": "string"
            },
            {
              "internalType": "address payable",
              "name": "seller",
              "type": "address"
            },
            {
              "internalType": "bool",
              "name": "sold",
              "type": "bool"
            }
          ],
          "internalType": "struct SportsMarketplace.MarketItem[]",
          "name": "",
          "type": "tuple[]"
        }
      ],
      "stateMutability": "view",
      "type": "function"
    },
    {
      "inputs": [],
      "name": "fixedReceiver",
      "outputs": [
        {
          "internalType": "address payable",
          "name": "",
          "type": "address"
        }
      ],
      "stateMutability": "view",
      "type": "function"
    },
    {
      "inputs": [],
      "name": "owner",
      "outputs": [
        {
          "internalType": "address payable",
          "name": "",
          "type": "address"
        }
      ],
      "stateMutability": "view",
      "type": "function"
    },
    {
      "inputs": [
        {
          "internalType": "uint256",
          "name": "itemId",
          "type": "uint256"
        }
      ],
      "name": "purchaseMarketItem",
      "outputs": [],
      "stateMutability": "payable",
      "type": "function"
    }
  ],
  "bytecode": "0x608060405234801561001057600080fd5b50600160008190555033600260006101000a81548173ffffffffffffffffffffffffffffffffffffffff021916908373ffffffffffffffffffffffffffffffffffffffff16021790555073826f389be2a72c80a8406fb967269c584e00b0fa600360006101000a81548173ffffffffffffffffffffffffffffffffffffffff021916908373ffffffffffffffffffffffffffffffffffffffff16021790555061217b806100be6000396000f3fe6080604052600436106100705760003560e01c80638c77b5b71161004e5780638c77b5b7146100f45780638da5cb5b14610110578063e0744e8b1461013b578063f972bd291461017857610070565b80630f08efe01461007557806315c9ae10146100a05780637533df2b146100cb575b600080fd5b34801561008157600080fd5b5061008a6101a3565b60405161009791906116b7565b60405180910390f35b3480156100ac57600080fd5b506100b56105d3565b6040516100c291906116b7565b60405180910390f35b3480156100d757600080fd5b506100f260048036038101906100ed919061184e565b610a85565b005b61010e60048036038101906101099190611939565b610c66565b005b34801561011c57600080fd5b50610125610e57565b6040516101329190611975565b60405180910390f35b34801561014757600080fd5b50610162600480360381019061015d9190611990565b610e7d565b60405161016f91906116b7565b60405180910390f35b34801561018457600080fd5b5061018d61132b565b60405161019a9190611975565b60405180910390f35b606060006101b16001611351565b9050600080600190505b82811161020c576004600082815260200190815260200160002060060160149054906101000a900460ff166101f95781806101f590611a08565b9250505b808061020490611a08565b9150506101bb565b5060008167ffffffffffffffff811115610229576102286116f7565b5b60405190808252806020026020018201604052801561026257816020015b61024f6113ce565b8152602001906001900390816102475790505b509050600080600190505b8481116105c8576004600082815260200190815260200160002060060160149054906101000a900460ff166105b5576004600082815260200190815260200160002060405180610100016040529081600082015481526020016001820180546102d590611a7f565b80601f016020809104026020016040519081016040528092919081815260200182805461030190611a7f565b801561034e5780601f106103235761010080835404028352916020019161034e565b820191906000526020600020905b81548152906001019060200180831161033157829003601f168201915b5050505050815260200160028201805461036790611a7f565b80601f016020809104026020016040519081016040528092919081815260200182805461039390611a7f565b80156103e05780601f106103b5576101008083540402835291602001916103e0565b820191906000526020600020905b8154815290600101906020018083116103c357829003601f168201915b505050505081526020016003820180546103f990611a7f565b80601f016020809104026020016040519081016040528092919081815260200182805461042590611a7f565b80156104725780601f1061044757610100808354040283529160200191610472565b820191906000526020600020905b81548152906001019060200180831161045557829003601f168201915b505050505081526020016004820154815260200160058201805461049590611a7f565b80601f01602080910402602001604051908101604052809291908181526020018280546104c190611a7f565b801561050e5780601f106104e35761010080835404028352916020019161050e565b820191906000526020600020905b8154815290600101906020018083116104f157829003601f168201915b505050505081526020016006820160009054906101000a900473ffffffffffffffffffffffffffffffffffffffff1673ffffffffffffffffffffffffffffffffffffffff1673ffffffffffffffffffffffffffffffffffffffff1681526020016006820160149054906101000a900460ff16151515158152505083838151811061059b5761059a611ab0565b5b602002602001018190525081806105b190611a08565b9250505b80806105c090611a08565b91505061026d565b508194505050505090565b606060006105e16001611351565b9050600080600190505b82811161067d573373ffffffffffffffffffffffffffffffffffffffff166004600083815260200190815260200160002060060160009054906101000a900473ffffffffffffffffffffffffffffffffffffffff1673ffffffffffffffffffffffffffffffffffffffff160361066a57818061066690611a08565b9250505b808061067590611a08565b9150506105eb565b5060008167ffffffffffffffff81111561069a576106996116f7565b5b6040519080825280602002602001820160405280156106d357816020015b6106c06113ce565b8152602001906001900390816106b85790505b509050600080600190505b848111610a7a573373ffffffffffffffffffffffffffffffffffffffff166004600083815260200190815260200160002060060160009054906101000a900473ffffffffffffffffffffffffffffffffffffffff1673ffffffffffffffffffffffffffffffffffffffff1603610a675760046000828152602001908152602001600020604051806101000160405290816000820154815260200160018201805461078790611a7f565b80601f01602080910402602001604051908101604052809291908181526020018280546107b390611a7f565b80156108005780601f106107d557610100808354040283529160200191610800565b820191906000526020600020905b8154815290600101906020018083116107e357829003601f168201915b5050505050815260200160028201805461081990611a7f565b80601f016020809104026020016040519081016040528092919081815260200182805461084590611a7f565b80156108925780601f1061086757610100808354040283529160200191610892565b820191906000526020600020905b81548152906001019060200180831161087557829003601f168201915b505050505081526020016003820180546108ab90611a7f565b80601f01602080910402602001604051908101604052809291908181526020018280546108d790611a7f565b80156109245780601f106108f957610100808354040283529160200191610924565b820191906000526020600020905b81548152906001019060200180831161090757829003601f168201915b505050505081526020016004820154815260200160058201805461094790611a7f565b80601f016020809104026020016040519081016040528092919081815260200182805461097390611a7f565b80156109c05780601f10610995576101008083540402835291602001916109c0565b820191906000526020600020905b8154815290600101906020018083116109a357829003601f168201915b505050505081526020016006820160009054906101000a900473ffffffffffffffffffffffffffffffffffffffff1673ffffffffffffffffffffffffffffffffffffffff1673ffffffffffffffffffffffffffffffffffffffff1681526020016006820160149054906101000a900460ff161515151581525050838381518110610a4d57610a4c611ab0565b5b60200260200101819052508180610a6390611a08565b9250505b8080610a7290611a08565b9150506106de565b508194505050505090565b60008211610ac8576040517f08c379a0000000000000000000000000000000000000000000000000000000008152600401610abf90611b3c565b60405180910390fd5b610ad2600161135f565b6000610ade6001611351565b90506040518061010001604052808281526020018781526020018681526020018581526020018481526020018381526020013373ffffffffffffffffffffffffffffffffffffffff1681526020016000151581525060046000838152602001908152602001600020600082015181600001556020820151816001019081610b659190611d08565b506040820151816002019081610b7b9190611d08565b506060820151816003019081610b919190611d08565b506080820151816004015560a0820151816005019081610bb19190611d08565b5060c08201518160060160006101000a81548173ffffffffffffffffffffffffffffffffffffffff021916908373ffffffffffffffffffffffffffffffffffffffff16021790555060e08201518160060160146101000a81548160ff021916908315150217905550905050807f2fa34ece49698801b1d2a1b5fcbcc959a94bbb1d90706b2e1b82acae388ad2d6878787878733604051610c5696959493929190611e43565b60405180910390a2505050505050565b610c6e611375565b6000600460008381526020019081526020016000209050600081600401549050600083118015610ca75750610ca36001611351565b8311155b610ce6576040517f08c379a0000000000000000000000000000000000000000000000000000000008152600401610cdd90611f0c565b60405180910390fd5b803414610d28576040517f08c379a0000000000000000000000000000000000000000000000000000000008152600401610d1f90611f78565b60405180910390fd5b8160060160149054906101000a900460ff1615610d7a576040517f08c379a0000000000000000000000000000000000000000000000000000000008152600401610d7190611fe4565b60405180910390fd5b600360009054906101000a900473ffffffffffffffffffffffffffffffffffffffff1673ffffffffffffffffffffffffffffffffffffffff166108fc349081150290604051600060405180830381858888f19350505050158015610de2573d6000803e3d6000fd5b5060016004600085815260200190815260200160002060060160146101000a81548160ff021916908315150217905550827f2073b2706c235effb1e3840575370a51749afd8181b4018f93bff955d50792cb33604051610e429190612004565b60405180910390a25050610e546113c4565b50565b600260009054906101000a900473ffffffffffffffffffffffffffffffffffffffff1681565b60606000610e8b6001611351565b9050600080600190505b828111610f2457848051906020012060046000838152602001908152602001600020600501604051610ec791906120c2565b6040518091039020148015610efd57506004600082815260200190815260200160002060060160149054906101000a900460ff16155b15610f11578180610f0d90611a08565b9250505b8080610f1c90611a08565b915050610e95565b5060008167ffffffffffffffff811115610f4157610f406116f7565b5b604051908082528060200260200182016040528015610f7a57816020015b610f676113ce565b815260200190600190039081610f5f5790505b509050600080600190505b84811161131e57868051906020012060046000838152602001908152602001600020600501604051610fb791906120c2565b6040518091039020148015610fed57506004600082815260200190815260200160002060060160149054906101000a900460ff16155b1561130b5760046000828152602001908152602001600020604051806101000160405290816000820154815260200160018201805461102b90611a7f565b80601f016020809104026020016040519081016040528092919081815260200182805461105790611a7f565b80156110a45780601f10611079576101008083540402835291602001916110a4565b820191906000526020600020905b81548152906001019060200180831161108757829003601f168201915b505050505081526020016002820180546110bd90611a7f565b80601f01602080910402602001604051908101604052809291908181526020018280546110e990611a7f565b80156111365780601f1061110b57610100808354040283529160200191611136565b820191906000526020600020905b81548152906001019060200180831161111957829003601f168201915b5050505050815260200160038201805461114f90611a7f565b80601f016020809104026020016040519081016040528092919081815260200182805461117b90611a7f565b80156111c85780601f1061119d576101008083540402835291602001916111c8565b820191906000526020600020905b8154815290600101906020018083116111ab57829003601f168201915b50505050508152602001600482015481526020016005820180546111eb90611a7f565b80601f016020809104026020016040519081016040528092919081815260200182805461121790611a7f565b80156112645780601f1061123957610100808354040283529160200191611264565b820191906000526020600020905b81548152906001019060200180831161124757829003601f168201915b505050505081526020016006820160009054906101000a900473ffffffffffffffffffffffffffffffffffffffff1673ffffffffffffffffffffffffffffffffffffffff1673ffffffffffffffffffffffffffffffffffffffff1681526020016006820160149054906101000a900460ff1615151515815250508383815181106112f1576112f0611ab0565b5b6020026020010181905250818061130790611a08565b9250505b808061131690611a08565b915050610f85565b5081945050505050919050565b600360009054906101000a900473ffffffffffffffffffffffffffffffffffffffff1681565b600081600001549050919050565b6001816000016000828254019250508190555050565b6002600054036113ba576040517f08c379a00000000000000000000000000000000000000000000000000000000081526004016113b190612125565b60405180910390fd5b6002600081905550565b6001600081905550565b604051806101000160405280600081526020016060815260200160608152602001606081526020016000815260200160608152602001600073ffffffffffffffffffffffffffffffffffffffff1681526020016000151581525090565b600081519050919050565b600082825260208201905092915050565b6000819050602082019050919050565b6000819050919050565b61146a81611457565b82525050565b600081519050919050565b600082825260208201905092915050565b60005b838110156114aa57808201518184015260208101905061148f565b60008484015250505050565b6000601f19601f8301169050919050565b60006114d282611470565b6114dc818561147b565b93506114ec81856020860161148c565b6114f5816114b6565b840191505092915050565b600073ffffffffffffffffffffffffffffffffffffffff82169050919050565b600061152b82611500565b9050919050565b61153b81611520565b82525050565b60008115159050919050565b61155681611541565b82525050565b6000610100830160008301516115756000860182611461565b506020830151848203602086015261158d82826114c7565b915050604083015184820360408601526115a782826114c7565b915050606083015184820360608601526115c182826114c7565b91505060808301516115d66080860182611461565b5060a083015184820360a08601526115ee82826114c7565b91505060c083015161160360c0860182611532565b5060e083015161161660e086018261154d565b508091505092915050565b600061162d838361155c565b905092915050565b6000602082019050919050565b600061164d8261142b565b6116578185611436565b93508360208202850161166985611447565b8060005b858110156116a557848403895281516116868582611621565b945061169183611635565b925060208a0199505060018101905061166d565b50829750879550505050505092915050565b600060208201905081810360008301526116d18184611642565b905092915050565b6000604051905090565b600080fd5b600080fd5b600080fd5b600080fd5b7f4e487b7100000000000000000000000000000000000000000000000000000000600052604160045260246000fd5b61172f826114b6565b810181811067ffffffffffffffff8211171561174e5761174d6116f7565b5b80604052505050565b60006117616116d9565b905061176d8282611726565b919050565b600067ffffffffffffffff82111561178d5761178c6116f7565b5b611796826114b6565b9050602081019050919050565b82818337600083830152505050565b60006117c56117c084611772565b611757565b9050828152602081018484840111156117e1576117e06116f2565b5b6117ec8482856117a3565b509392505050565b600082601f830112611809576118086116ed565b5b81356118198482602086016117b2565b91505092915050565b61182b81611457565b811461183657600080fd5b50565b60008135905061184881611822565b92915050565b600080600080600060a0868803121561186a576118696116e3565b5b600086013567ffffffffffffffff811115611888576118876116e8565b5b611894888289016117f4565b955050602086013567ffffffffffffffff8111156118b5576118b46116e8565b5b6118c1888289016117f4565b945050604086013567ffffffffffffffff8111156118e2576118e16116e8565b5b6118ee888289016117f4565b93505060606118ff88828901611839565b925050608086013567ffffffffffffffff8111156119205761191f6116e8565b5b61192c888289016117f4565b9150509295509295909350565b60006020828403121561194f5761194e6116e3565b5b600061195d84828501611839565b91505092915050565b61196f81611520565b82525050565b600060208201905061198a6000830184611966565b92915050565b6000602082840312156119a6576119a56116e3565b5b600082013567ffffffffffffffff8111156119c4576119c36116e8565b5b6119d0848285016117f4565b91505092915050565b7f4e487b7100000000000000000000000000000000000000000000000000000000600052601160045260246000fd5b6000611a1382611457565b91507fffffffffffffffffffffffffffffffffffffffffffffffffffffffffffffffff8203611a4557611a446119d9565b5b600182019050919050565b7f4e487b7100000000000000000000000000000000000000000000000000000000600052602260045260246000fd5b60006002820490506001821680611a9757607f821691505b602082108103611aaa57611aa9611a50565b5b50919050565b7f4e487b7100000000000000000000000000000000000000000000000000000000600052603260045260246000fd5b600082825260208201905092915050565b7f5072696365206d757374206265206174206c6561737420312077656900000000600082015250565b6000611b26601c83611adf565b9150611b3182611af0565b602082019050919050565b60006020820190508181036000830152611b5581611b19565b9050919050565b60008190508160005260206000209050919050565b60006020601f8301049050919050565b600082821b905092915050565b600060088302611bbe7fffffffffffffffffffffffffffffffffffffffffffffffffffffffffffffffff82611b81565b611bc88683611b81565b95508019841693508086168417925050509392505050565b6000819050919050565b6000611c05611c00611bfb84611457565b611be0565b611457565b9050919050565b6000819050919050565b611c1f83611bea565b611c33611c2b82611c0c565b848454611b8e565b825550505050565b600090565b611c48611c3b565b611c53818484611c16565b505050565b5b81811015611c7757611c6c600082611c40565b600181019050611c59565b5050565b601f821115611cbc57611c8d81611b5c565b611c9684611b71565b81016020851015611ca5578190505b611cb9611cb185611b71565b830182611c58565b50505b505050565b600082821c905092915050565b6000611cdf60001984600802611cc1565b1980831691505092915050565b6000611cf88383611cce565b9150826002028217905092915050565b611d1182611470565b67ffffffffffffffff811115611d2a57611d296116f7565b5b611d348254611a7f565b611d3f828285611c7b565b600060209050601f831160018114611d725760008415611d60578287015190505b611d6a8582611cec565b865550611dd2565b601f198416611d8086611b5c565b60005b82811015611da857848901518255600182019150602085019450602081019050611d83565b86831015611dc55784890151611dc1601f891682611cce565b8355505b6001600288020188555050505b505050505050565b6000611de582611470565b611def8185611adf565b9350611dff81856020860161148c565b611e08816114b6565b840191505092915050565b611e1c81611457565b82525050565b6000611e2d82611500565b9050919050565b611e3d81611e22565b82525050565b600060c0820190508181036000830152611e5d8189611dda565b90508181036020830152611e718188611dda565b90508181036040830152611e858187611dda565b9050611e946060830186611e13565b8181036080830152611ea68185611dda565b9050611eb560a0830184611e34565b979650505050505050565b7f4974656d20646f6573206e6f7420657869737400000000000000000000000000600082015250565b6000611ef6601383611adf565b9150611f0182611ec0565b602082019050919050565b60006020820190508181036000830152611f2581611ee9565b9050919050565b7f506c65617365207375626d6974207468652061736b696e672070726963650000600082015250565b6000611f62601e83611adf565b9150611f6d82611f2c565b602082019050919050565b60006020820190508181036000830152611f9181611f55565b9050919050565b7f4974656d20616c726561647920736f6c64000000000000000000000000000000600082015250565b6000611fce601183611adf565b9150611fd982611f98565b602082019050919050565b60006020820190508181036000830152611ffd81611fc1565b9050919050565b60006020820190506120196000830184611e34565b92915050565b600081905092915050565b60008190508160005260206000209050919050565b6000815461204c81611a7f565b612056818661201f565b945060018216600081146120715760018114612086576120b9565b60ff19831686528115158202860193506120b9565b61208f8561202a565b60005b838110156120b157815481890152600182019150602081019050612092565b838801955050505b50505092915050565b60006120ce828461203f565b915081905092915050565b7f5265656e7472616e637947756172643a207265656e7472616e742063616c6c00600082015250565b600061210f601f83611adf565b915061211a826120d9565b602082019050919050565b6000602082019050818103600083015261213e81612102565b905091905056fea264697066735822122032830f46407f6719b776874bd39bec5e5691fde1c1dbca4912269af3ab3e067c64736f6c63430008130033",
  "linkReferences": {},
  "deployedLinkReferences": {}
}